{
  "contractName": "Rating",
  "abi": [
    {
      "constant": true,
      "inputs": [
        {
          "name": "",
          "type": "uint256"
        }
      ],
      "name": "restaurantList",
      "outputs": [
        {
          "name": "",
          "type": "bytes32"
        }
      ],
      "payable": false,
      "stateMutability": "view",
      "type": "function"
    },
    {
      "constant": true,
      "inputs": [
        {
          "name": "",
          "type": "bytes32"
        }
      ],
      "name": "ratingsReceived",
      "outputs": [
        {
          "name": "",
          "type": "uint8"
        }
      ],
      "payable": false,
      "stateMutability": "view",
      "type": "function"
    },
    {
      "inputs": [
        {
          "name": "restaurantNames",
          "type": "bytes32[]"
        }
      ],
      "payable": false,
      "stateMutability": "nonpayable",
      "type": "constructor"
    },
    {
      "constant": true,
      "inputs": [
        {
          "name": "restaurant",
          "type": "bytes32"
        }
      ],
      "name": "totalVotesFor",
      "outputs": [
        {
          "name": "",
          "type": "uint8"
        }
      ],
      "payable": false,
      "stateMutability": "view",
      "type": "function"
    },
    {
      "constant": false,
      "inputs": [
        {
          "name": "restaurant",
          "type": "bytes32"
        }
      ],
      "name": "voteForRestaurant",
      "outputs": [],
      "payable": false,
      "stateMutability": "nonpayable",
      "type": "function"
    },
    {
      "constant": true,
      "inputs": [],
      "name": "getRestaurantList",
      "outputs": [
        {
          "name": "",
          "type": "bytes32[]"
        }
      ],
      "payable": false,
      "stateMutability": "view",
      "type": "function"
    }
  ],
  "bytecode": "0x608060405234801561001057600080fd5b5060405161040e38038061040e8339810180604052602081101561003357600080fd5b81019080805164010000000081111561004b57600080fd5b8281019050602081018481111561006157600080fd5b815185602082028301116401000000008211171561007e57600080fd5b5050929190505050806001908051906020019061009c9291906100a3565b5050610115565b8280548282559060005260206000209081019282156100df579160200282015b828111156100de5782518255916020019190600101906100c3565b5b5090506100ec91906100f0565b5090565b61011291905b8082111561010e5760008160009055506001016100f6565b5090565b90565b6102ea806101246000396000f3fe608060405234801561001057600080fd5b50600436106100575760003560e01c80632f265cf71461005c5780634b4acadc146100a45780635f4187b0146100e657806363f13d9f1461012e578063f37caaaf1461018d575b600080fd5b6100886004803603602081101561007257600080fd5b81019080803590602001909291905050506101bb565b604051808260ff1660ff16815260200191505060405180910390f35b6100d0600480360360208110156100ba57600080fd5b81019080803590602001909291905050506101e4565b6040518082815260200191505060405180910390f35b610112600480360360208110156100fc57600080fd5b8101908080359060200190929190505050610205565b604051808260ff1660ff16815260200191505060405180910390f35b610136610225565b6040518080602001828103825283818151815260200191508051906020019060200280838360005b8381101561017957808201518184015260208101905061015e565b505050509050019250505060405180910390f35b6101b9600480360360208110156101a357600080fd5b810190808035906020019092919050505061027d565b005b600080600083815260200190815260200160002060009054906101000a900460ff169050919050565b600181815481106101f157fe5b906000526020600020016000915090505481565b60006020528060005260406000206000915054906101000a900460ff1681565b6060600180548060200260200160405190810160405280929190818152602001828054801561027357602002820191906000526020600020905b81548152602001906001019080831161025f575b5050505050905090565b600160008083815260200190815260200160002060008282829054906101000a900460ff160192506101000a81548160ff021916908360ff1602179055505056fea165627a7a723058202732511ccd7d1d3c9390bfc02bd2d661d8555df3a330c3a3862d5e5c0a58b67b0029",
  "source": "pragma solidity ^0.5.0;\r\n\r\ncontract Rating {\r\n    mapping (bytes32 => uint8) public ratingsReceived;\r\n    bytes32[] public restaurantList;\r\n    // 1 - 合約初始化\r\n    constructor(bytes32[] memory restaurantNames) public {\r\n        restaurantList = restaurantNames;\r\n    }\r\n    // 2 - 回傳餐廳的投票數\r\n    function totalVotesFor(bytes32 restaurant) public view  returns (uint8)  {\r\n        return ratingsReceived[restaurant];\r\n    }\r\n    // 3 - 投票，將目前投票數+1\r\n    function voteForRestaurant(bytes32 restaurant) public {\r\n        ratingsReceived[restaurant] += 1;\r\n    }\r\n\r\n    // 4 - 回傳餐廳列表\r\n    function getRestaurantList() public view returns (bytes32[] memory) {\r\n        return restaurantList;\r\n    }\r\n}",
  "sourcePath": "D:/Hongwei/BlockChain/Ethereum/Dapp/RestaurantsRating/contracts/Rating.sol",
  "compiler": {
    "name": "solc",
    "version": "0.5.8+commit.23d335f2.Emscripten.clang"
  },
  "schemaVersion": "3.0.11",
  "updatedAt": "2019-09-30T08:18:46.424Z",
  "devdoc": {
    "methods": {}
  },
  "userdoc": {
    "methods": {}
  }
}